:020000040000FA
:1000000007308C0009308D0005308E0003308F00E2
:10001000013090000B200D080C0217200E080C0276
:100020001A200F080C021D2010080C0220200318B3
:1000300008002320031808002B2003180800332091
:10004000031808003B200C088B000D088C000B08DF
:100050008D008B010B200C088B000E088C000B0808
:100060008E008B010B200C088B000F088C000B08F6
:100070008F008B010B200C088B0010088C000B08E4
:1000800090008B010B200E080D024C200F080D0272
:100090004F2010080D0252200318080055200318A5
:1000A00008005D200318080065200D088B000E086D
:1000B0008D000B088E008B0143200D088B000F086C
:1000C0008D000B088F008B0143200D088B0010085A
:1000D0008D000B0890008B0143200F080E02732047
:1000E00010080E0276200318080079200318080073
:1000F00081200E088B000F088E000B088F008B01EB
:100100006D200E088B0010088E000B0890008B01EC
:100110006D2010080F028C20031897288F200F08DD
:100120008B0010088F000B0890008B0189208B0139
:0201300097280E
:00000001FF
