:020000040000FA
:100000009E019F018F018E019701FD309200FF300C
:100010009300FF309400FF309500FF3096000530CC
:100020009F0012281320120813078F0024200F08A6
:1000300014078F0024200F0815078F0024200F08B5
:1000400016078F0024202828031C08008E0A0800A9
:100050003E2047202F088F0736202E088E07970F47
:100060002828A70A2828031808005528031C080078
:100070008E0A0800031D0800432008001E080E0217
:1000800033203A2008001F080F02332008001E0901
:10009000AE001F09AF004D200800AF0F0800AE0FE3
:0C00A0000800AD0A080097010800552870
:00000001FF
