:020000040000FA
:100000000F308C0003280C180C1C07280B288C18A8
:100010008C1C0F2813288C188C1C17281B280C19D3
:100020000C1D332827280C190C1D2F282B280C19E0
:100030000C1D372823280C190C1D1F283B288C1950
:100040008C1D482860288C198C1D4E2866288C1918
:100050008C1D4B2863288C198C1D512869288C19FC
:100060008C1D45285D288C198C1D3F2857288C191C
:100070008C1D42285A288C198C1D54286C2800305D
:100080008D006F2801308D006F2802308D006F28A1
:1000900003308D006F2804308D006F2805308D00EF
:1000A0006F2806308D006F2807308D006F280830CC
:1000B0008D006F2809308D006F2810308D006F285B
:1000C00011308D006F2812308D006F2813308D0095
:1000D0006F2814308D006F2815308D006F280301B4
:0200E0006F2887
:00000001FF
