:020000040000FA
:1000000009308C0003280C180C1C07280B288C18AE
:100010008C1C0F2813288C188C1C17281B280C19D3
:100020000C1D1F2833280C190C1D2D2839280C19DC
:100030000C1D232836280C190C1D30283C288C193F
:100040008C1D27283F288C198C1D2A2842283F30D8
:100050008D00452806308D0045285B308D004528F1
:100060004F308D00452866308D0045286D308D005D
:100070004528ED308D00452847308D0045287F30DC
:0E0080008D00452867308D0045280301452876
:00000001FF
