:020000040000FA
:1000000004308C0008308D0002308E000A308F00E2
:10001000063090000B280D080C0217280E080C0261
:100020001A280F080C021D2810080C02202803189B
:100030000E282328031811282B28031814283328E6
:10004000031843283B280C088B000D088C000B0874
:100050008D008B010B280C088B000E088C000B0800
:100060008E008B010B280C088B000F088C000B08EE
:100070008F008B010B280C088B0010088C000B08DC
:1000800090008B010B280E080D024C280F080D0262
:100090004F2810080D025228031846285528031827
:1000A00049285D2803186D2865280D088B000E0867
:1000B0008D000B088E008B0143280D088B000F0864
:1000C0008D000B088F008B0143280D088B00100852
:1000D0008D000B0890008B0143280F080E02732837
:1000E00010080E027628031870287928031889282A
:1000F00081280E088B000F088E000B088F008B01E3
:100100006D280E088B0010088E000B0890008B01E4
:100110006D2810080F028C28031897288F280F08C5
:100120008B0010088F000B0890008B0189288B0131
:0201300097280E
:00000001FF
